{"abi":[{"type":"constructor","inputs":[],"stateMutability":"nonpayable"},{"type":"function","name":"complete","inputs":[{"name":"_jobId","type":"uint256","internalType":"uint256"},{"name":"_reason","type":"bytes32","internalType":"bytes32"},{"name":"","type":"bytes","internalType":"bytes"}],"outputs":[],"stateMutability":"nonpayable"},{"type":"function","name":"createJob","inputs":[{"name":"_provider","type":"address","internalType":"address"},{"name":"_evaluator","type":"address","internalType":"address"},{"name":"_expiredAt","type":"uint256","internalType":"uint256"},{"name":"_description","type":"string","internalType":"string"},{"name":"_hook","type":"address","internalType":"address"}],"outputs":[{"name":"","type":"uint256","internalType":"uint256"}],"stateMutability":"nonpayable"},{"type":"function","name":"fund","inputs":[{"name":"_jobId","type":"uint256","internalType":"uint256"},{"name":"","type":"bytes","internalType":"bytes"}],"outputs":[],"stateMutability":"nonpayable"},{"type":"function","name":"getJobStatus","inputs":[{"name":"_jobId","type":"uint256","internalType":"uint256"}],"outputs":[{"name":"","type":"uint8","internalType":"uint8"}],"stateMutability":"view"},{"type":"function","name":"jobs","inputs":[{"name":"","type":"uint256","internalType":"uint256"}],"outputs":[{"name":"id","type":"uint256","internalType":"uint256"},{"name":"client","type":"address","internalType":"address"},{"name":"provider","type":"address","internalType":"address"},{"name":"evaluator","type":"address","internalType":"address"},{"name":"expiredAt","type":"uint256","internalType":"uint256"},{"name":"description","type":"string","internalType":"string"},{"name":"hook","type":"address","internalType":"address"},{"name":"status","type":"uint8","internalType":"enum ConvenatCommerce.JobStatus"},{"name":"reason","type":"bytes32","internalType":"bytes32"},{"name":"budget","type":"uint256","internalType":"uint256"}],"stateMutability":"view"},{"type":"function","name":"nextJobId","inputs":[],"outputs":[{"name":"","type":"uint256","internalType":"uint256"}],"stateMutability":"view"},{"type":"function","name":"owner","inputs":[],"outputs":[{"name":"","type":"address","internalType":"address"}],"stateMutability":"view"},{"type":"function","name":"reject","inputs":[{"name":"_jobId","type":"uint256","internalType":"uint256"},{"name":"_reason","type":"bytes32","internalType":"bytes32"},{"name":"","type":"bytes","internalType":"bytes"}],"outputs":[],"stateMutability":"nonpayable"},{"type":"function","name":"setBudget","inputs":[{"name":"_jobId","type":"uint256","internalType":"uint256"},{"name":"_amount","type":"uint256","internalType":"uint256"},{"name":"","type":"bytes","internalType":"bytes"}],"outputs":[],"stateMutability":"nonpayable"},{"type":"function","name":"submit","inputs":[{"name":"_jobId","type":"uint256","internalType":"uint256"},{"name":"_deliverable","type":"bytes32","internalType":"bytes32"},{"name":"","type":"bytes","internalType":"bytes"}],"outputs":[],"stateMutability":"nonpayable"},{"type":"function","name":"transferOwnership","inputs":[{"name":"_newOwner","type":"address","internalType":"address"}],"outputs":[],"stateMutability":"nonpayable"},{"type":"event","name":"BudgetSet","inputs":[{"name":"jobId","type":"uint256","indexed":true,"internalType":"uint256"},{"name":"amount","type":"uint256","indexed":false,"internalType":"uint256"}],"anonymous":false},{"type":"event","name":"Completed","inputs":[{"name":"jobId","type":"uint256","indexed":true,"internalType":"uint256"},{"name":"reason","type":"bytes32","indexed":false,"internalType":"bytes32"}],"anonymous":false},{"type":"event","name":"JobCreated","inputs":[{"name":"jobId","type":"uint256","indexed":true,"internalType":"uint256"},{"name":"client","type":"address","indexed":true,"internalType":"address"},{"name":"provider","type":"address","indexed":true,"internalType":"address"}],"anonymous":false},{"type":"event","name":"JobFunded","inputs":[{"name":"jobId","type":"uint256","indexed":true,"internalType":"uint256"}],"anonymous":false},{"type":"event","name":"JobRejected","inputs":[{"name":"jobId","type":"uint256","indexed":true,"internalType":"uint256"},{"name":"reason","type":"bytes32","indexed":false,"internalType":"bytes32"}],"anonymous":false},{"type":"event","name":"Submitted","inputs":[{"name":"jobId","type":"uint256","indexed":true,"internalType":"uint256"},{"name":"deliverable","type":"bytes32","indexed":false,"internalType":"bytes32"}],"anonymous":false}],"bytecode":{"object":"0x6080604052600180553480156012575f5ffd5b50335f5f6101000a81548173ffffffffffffffffffffffffffffffffffffffff021916908373ffffffffffffffffffffffffffffffffffffffff160217905550611e488061005f5f395ff3fe608060405234801561000f575f5ffd5b50600436106100a7575f3560e01c8063a6c58b631161006f578063a6c58b631461016a578063b0c2aa5e1461019a578063d75bbdf3146101b8578063dd4ae9d4146101d4578063e25ba707146101f0578063f2fde38b1461020c576100a7565b8063180aedf3146100ab57806341528812146100e457806341dd26f5146101145780638da5cb5b146101305780639e63798d1461014e575b5f5ffd5b6100c560048036038101906100c0919061115f565b610228565b6040516100db9a999897969594939291906112d3565b60405180910390f35b6100fe60048036038101906100f991906113ff565b610387565b60405161010b9190611495565b60405180910390f35b61012e6004803603810190610129919061152d565b610699565b005b610138610870565b604051610145919061159e565b60405180910390f35b6101686004803603810190610163919061152d565b610894565b005b610184600480360381019061017f919061115f565b610a35565b60405161019191906115d2565b60405180910390f35b6101a2610a71565b6040516101af9190611495565b60405180910390f35b6101d260048036038101906101cd919061152d565b610a77565b005b6101ee60048036038101906101e991906115eb565b610c4e565b005b61020a6004803603810190610205919061165c565b610e24565b005b610226600480360381019061022191906116b9565b610fe6565b005b6002602052805f5260405f205f91509050805f015490806001015f9054906101000a900473ffffffffffffffffffffffffffffffffffffffff1690806002015f9054906101000a900473ffffffffffffffffffffffffffffffffffffffff1690806003015f9054906101000a900473ffffffffffffffffffffffffffffffffffffffff16908060040154908060050180546102c290611711565b80601f01602080910402602001604051908101604052809291908181526020018280546102ee90611711565b80156103395780601f1061031057610100808354040283529160200191610339565b820191905f5260205f20905b81548152906001019060200180831161031c57829003601f168201915b505050505090806006015f9054906101000a900473ffffffffffffffffffffffffffffffffffffffff16908060060160149054906101000a900460ff1690806007015490806008015490508a565b5f5f60015f81548092919061039b9061176e565b9190505590506040518061014001604052808281526020013373ffffffffffffffffffffffffffffffffffffffff1681526020018973ffffffffffffffffffffffffffffffffffffffff1681526020018873ffffffffffffffffffffffffffffffffffffffff16815260200187815260200186868080601f0160208091040260200160405190810160405280939291908181526020018383808284375f81840152601f19601f8201169050808301925050505050505081526020018473ffffffffffffffffffffffffffffffffffffffff1681526020015f600581111561048557610484611248565b5b81526020015f5f1b81526020015f81525060025f8381526020019081526020015f205f820151815f01556020820151816001015f6101000a81548173ffffffffffffffffffffffffffffffffffffffff021916908373ffffffffffffffffffffffffffffffffffffffff1602179055506040820151816002015f6101000a81548173ffffffffffffffffffffffffffffffffffffffff021916908373ffffffffffffffffffffffffffffffffffffffff1602179055506060820151816003015f6101000a81548173ffffffffffffffffffffffffffffffffffffffff021916908373ffffffffffffffffffffffffffffffffffffffff1602179055506080820151816004015560a08201518160050190816105a09190611982565b5060c0820151816006015f6101000a81548173ffffffffffffffffffffffffffffffffffffffff021916908373ffffffffffffffffffffffffffffffffffffffff16021790555060e08201518160060160146101000a81548160ff0219169083600581111561061257610611611248565b5b0217905550610100820151816007015561012082015181600801559050508773ffffffffffffffffffffffffffffffffffffffff163373ffffffffffffffffffffffffffffffffffffffff16827fb8a95c94eaef926728b4c32140db94a2588d56eb892b916b7cce579d783e19a360405160405180910390a4809150509695505050505050565b5f60025f8681526020019081526020015f2090505f815f0154036106f2576040517f08c379a00000000000000000000000000000000000000000000000000000000081526004016106e990611a9b565b60405180910390fd5b806003015f9054906101000a900473ffffffffffffffffffffffffffffffffffffffff1673ffffffffffffffffffffffffffffffffffffffff163373ffffffffffffffffffffffffffffffffffffffff1614610783576040517f08c379a000000000000000000000000000000000000000000000000000000000815260040161077a90611b03565b60405180910390fd5b6002600581111561079757610796611248565b5b8160060160149054906101000a900460ff1660058111156107bb576107ba611248565b5b146107fb576040517f08c379a00000000000000000000000000000000000000000000000000000000081526004016107f290611b6b565b60405180910390fd5b60048160060160146101000a81548160ff0219169083600581111561082357610822611248565b5b0217905550838160070181905550847f0854a7c78c93bd827e71843f970b508d4cdc63d0c9fd44cf7238a61ec5501f92856040516108619190611b89565b60405180910390a25050505050565b5f5f9054906101000a900473ffffffffffffffffffffffffffffffffffffffff1681565b5f60025f8681526020019081526020015f2090505f815f0154036108ed576040517f08c379a00000000000000000000000000000000000000000000000000000000081526004016108e490611a9b565b60405180910390fd5b806002015f9054906101000a900473ffffffffffffffffffffffffffffffffffffffff1673ffffffffffffffffffffffffffffffffffffffff163373ffffffffffffffffffffffffffffffffffffffff161461097e576040517f08c379a000000000000000000000000000000000000000000000000000000000815260040161097590611bec565b60405180910390fd5b6002600581111561099257610991611248565b5b8160060160149054906101000a900460ff1660058111156109b6576109b5611248565b5b146109f6576040517f08c379a00000000000000000000000000000000000000000000000000000000081526004016109ed90611b6b565b60405180910390fd5b847f465ddfeee4b3d0fb72ba16ca1e8d4ecf86373b44e51658af98043162de372b4c85604051610a269190611b89565b60405180910390a25050505050565b5f60025f8381526020019081526020015f2060060160149054906101000a900460ff166005811115610a6a57610a69611248565b5b9050919050565b60015481565b5f60025f8681526020019081526020015f2090505f815f015403610ad0576040517f08c379a0000000000000000000000000000000000000000000000000000000008152600401610ac790611a9b565b60405180910390fd5b806003015f9054906101000a900473ffffffffffffffffffffffffffffffffffffffff1673ffffffffffffffffffffffffffffffffffffffff163373ffffffffffffffffffffffffffffffffffffffff1614610b61576040517f08c379a0000000000000000000000000000000000000000000000000000000008152600401610b5890611b03565b60405180910390fd5b60026005811115610b7557610b74611248565b5b8160060160149054906101000a900460ff166005811115610b9957610b98611248565b5b14610bd9576040517f08c379a0000000000000000000000000000000000000000000000000000000008152600401610bd090611b6b565b60405180910390fd5b60038160060160146101000a81548160ff02191690836005811115610c0157610c00611248565b5b0217905550838160070181905550847f1e24a40b0725c580cf1b46df07d07aff288d6c96594a24b3f45c13b8b326c92585604051610c3f9190611b89565b60405180910390a25050505050565b5f60025f8681526020019081526020015f2090505f815f015403610ca7576040517f08c379a0000000000000000000000000000000000000000000000000000000008152600401610c9e90611a9b565b60405180910390fd5b806002015f9054906101000a900473ffffffffffffffffffffffffffffffffffffffff1673ffffffffffffffffffffffffffffffffffffffff163373ffffffffffffffffffffffffffffffffffffffff1614610d38576040517f08c379a0000000000000000000000000000000000000000000000000000000008152600401610d2f90611bec565b60405180910390fd5b5f6005811115610d4b57610d4a611248565b5b8160060160149054906101000a900460ff166005811115610d6f57610d6e611248565b5b14610daf576040517f08c379a0000000000000000000000000000000000000000000000000000000008152600401610da690611c54565b60405180910390fd5b83816008018190555060018160060160146101000a81548160ff02191690836005811115610de057610ddf611248565b5b0217905550847f869e2577b006bf47ee981cf6fec2e25583548081c14b98deab587f77b506803885604051610e159190611495565b60405180910390a25050505050565b5f60025f8581526020019081526020015f2090505f815f015403610e7d576040517f08c379a0000000000000000000000000000000000000000000000000000000008152600401610e7490611a9b565b60405180910390fd5b806001015f9054906101000a900473ffffffffffffffffffffffffffffffffffffffff1673ffffffffffffffffffffffffffffffffffffffff163373ffffffffffffffffffffffffffffffffffffffff1614610f0e576040517f08c379a0000000000000000000000000000000000000000000000000000000008152600401610f0590611cbc565b60405180910390fd5b60016005811115610f2257610f21611248565b5b8160060160149054906101000a900460ff166005811115610f4657610f45611248565b5b14610f86576040517f08c379a0000000000000000000000000000000000000000000000000000000008152600401610f7d90611d24565b60405180910390fd5b60028160060160146101000a81548160ff02191690836005811115610fae57610fad611248565b5b0217905550837f9033fdbde83e5ac011bb056ee12acd7656d1e63de51cd2ec958e95b85f0b87a460405160405180910390a250505050565b5f5f9054906101000a900473ffffffffffffffffffffffffffffffffffffffff1673ffffffffffffffffffffffffffffffffffffffff163373ffffffffffffffffffffffffffffffffffffffff1614611074576040517f08c379a000000000000000000000000000000000000000000000000000000000815260040161106b90611d8c565b60405180910390fd5b5f73ffffffffffffffffffffffffffffffffffffffff168173ffffffffffffffffffffffffffffffffffffffff16036110e2576040517f08c379a00000000000000000000000000000000000000000000000000000000081526004016110d990611df4565b60405180910390fd5b805f5f6101000a81548173ffffffffffffffffffffffffffffffffffffffff021916908373ffffffffffffffffffffffffffffffffffffffff16021790555050565b5f5ffd5b5f5ffd5b5f819050919050565b61113e8161112c565b8114611148575f5ffd5b50565b5f8135905061115981611135565b92915050565b5f6020828403121561117457611173611124565b5b5f6111818482850161114b565b91505092915050565b6111938161112c565b82525050565b5f73ffffffffffffffffffffffffffffffffffffffff82169050919050565b5f6111c282611199565b9050919050565b6111d2816111b8565b82525050565b5f81519050919050565b5f82825260208201905092915050565b8281835e5f83830152505050565b5f601f19601f8301169050919050565b5f61121a826111d8565b61122481856111e2565b93506112348185602086016111f2565b61123d81611200565b840191505092915050565b7f4e487b71000000000000000000000000000000000000000000000000000000005f52602160045260245ffd5b6006811061128657611285611248565b5b50565b5f81905061129682611275565b919050565b5f6112a582611289565b9050919050565b6112b58161129b565b82525050565b5f819050919050565b6112cd816112bb565b82525050565b5f610140820190506112e75f83018d61118a565b6112f4602083018c6111c9565b611301604083018b6111c9565b61130e606083018a6111c9565b61131b608083018961118a565b81810360a083015261132d8188611210565b905061133c60c08301876111c9565b61134960e08301866112ac565b6113576101008301856112c4565b61136561012083018461118a565b9b9a5050505050505050505050565b61137d816111b8565b8114611387575f5ffd5b50565b5f8135905061139881611374565b92915050565b5f5ffd5b5f5ffd5b5f5ffd5b5f5f83601f8401126113bf576113be61139e565b5b8235905067ffffffffffffffff8111156113dc576113db6113a2565b5b6020830191508360018202830111156113f8576113f76113a6565b5b9250929050565b5f5f5f5f5f5f60a0878903121561141957611418611124565b5b5f61142689828a0161138a565b965050602061143789828a0161138a565b955050604061144889828a0161114b565b945050606087013567ffffffffffffffff81111561146957611468611128565b5b61147589828a016113aa565b9350935050608061148889828a0161138a565b9150509295509295509295565b5f6020820190506114a85f83018461118a565b92915050565b6114b7816112bb565b81146114c1575f5ffd5b50565b5f813590506114d2816114ae565b92915050565b5f5f83601f8401126114ed576114ec61139e565b5b8235905067ffffffffffffffff81111561150a576115096113a2565b5b602083019150836001820283011115611526576115256113a6565b5b9250929050565b5f5f5f5f6060858703121561154557611544611124565b5b5f6115528782880161114b565b9450506020611563878288016114c4565b935050604085013567ffffffffffffffff81111561158457611583611128565b5b611590878288016114d8565b925092505092959194509250565b5f6020820190506115b15f8301846111c9565b92915050565b5f60ff82169050919050565b6115cc816115b7565b82525050565b5f6020820190506115e55f8301846115c3565b92915050565b5f5f5f5f6060858703121561160357611602611124565b5b5f6116108782880161114b565b94505060206116218782880161114b565b935050604085013567ffffffffffffffff81111561164257611641611128565b5b61164e878288016114d8565b925092505092959194509250565b5f5f5f6040848603121561167357611672611124565b5b5f6116808682870161114b565b935050602084013567ffffffffffffffff8111156116a1576116a0611128565b5b6116ad868287016114d8565b92509250509250925092565b5f602082840312156116ce576116cd611124565b5b5f6116db8482850161138a565b91505092915050565b7f4e487b71000000000000000000000000000000000000000000000000000000005f52602260045260245ffd5b5f600282049050600182168061172857607f821691505b60208210810361173b5761173a6116e4565b5b50919050565b7f4e487b71000000000000000000000000000000000000000000000000000000005f52601160045260245ffd5b5f6117788261112c565b91507fffffffffffffffffffffffffffffffffffffffffffffffffffffffffffffffff82036117aa576117a9611741565b5b600182019050919050565b7f4e487b71000000000000000000000000000000000000000000000000000000005f52604160045260245ffd5b5f819050815f5260205f209050919050565b5f6020601f8301049050919050565b5f82821b905092915050565b5f6008830261183e7fffffffffffffffffffffffffffffffffffffffffffffffffffffffffffffffff82611803565b6118488683611803565b95508019841693508086168417925050509392505050565b5f819050919050565b5f61188361187e6118798461112c565b611860565b61112c565b9050919050565b5f819050919050565b61189c83611869565b6118b06118a88261188a565b84845461180f565b825550505050565b5f5f905090565b6118c76118b8565b6118d2818484611893565b505050565b5b818110156118f5576118ea5f826118bf565b6001810190506118d8565b5050565b601f82111561193a5761190b816117e2565b611914846117f4565b81016020851015611923578190505b61193761192f856117f4565b8301826118d7565b50505b505050565b5f82821c905092915050565b5f61195a5f198460080261193f565b1980831691505092915050565b5f611972838361194b565b9150826002028217905092915050565b61198b826111d8565b67ffffffffffffffff8111156119a4576119a36117b5565b5b6119ae8254611711565b6119b98282856118f9565b5f60209050601f8311600181146119ea575f84156119d8578287015190505b6119e28582611967565b865550611a49565b601f1984166119f8866117e2565b5f5b82811015611a1f578489015182556001820191506020850194506020810190506119fa565b86831015611a3c5784890151611a38601f89168261194b565b8355505b6001600288020188555050505b505050505050565b7f4a6f6220646f6573206e6f7420657869737400000000000000000000000000005f82015250565b5f611a856012836111e2565b9150611a9082611a51565b602082019050919050565b5f6020820190508181035f830152611ab281611a79565b9050919050565b7f4f6e6c79206576616c7561746f720000000000000000000000000000000000005f82015250565b5f611aed600e836111e2565b9150611af882611ab9565b602082019050919050565b5f6020820190508181035f830152611b1a81611ae1565b9050919050565b7f4d757374206265205375626d69747465640000000000000000000000000000005f82015250565b5f611b556011836111e2565b9150611b6082611b21565b602082019050919050565b5f6020820190508181035f830152611b8281611b49565b9050919050565b5f602082019050611b9c5f8301846112c4565b92915050565b7f4f6e6c792070726f7669646572000000000000000000000000000000000000005f82015250565b5f611bd6600d836111e2565b9150611be182611ba2565b602082019050919050565b5f6020820190508181035f830152611c0381611bca565b9050919050565b7f4d757374206265204f70656e00000000000000000000000000000000000000005f82015250565b5f611c3e600c836111e2565b9150611c4982611c0a565b602082019050919050565b5f6020820190508181035f830152611c6b81611c32565b9050919050565b7f4f6e6c7920636c69656e740000000000000000000000000000000000000000005f82015250565b5f611ca6600b836111e2565b9150611cb182611c72565b602082019050919050565b5f6020820190508181035f830152611cd381611c9a565b9050919050565b7f4d7573742062652046756e6465640000000000000000000000000000000000005f82015250565b5f611d0e600e836111e2565b9150611d1982611cda565b602082019050919050565b5f6020820190508181035f830152611d3b81611d02565b9050919050565b7f4f6e6c79206f776e6572000000000000000000000000000000000000000000005f82015250565b5f611d76600a836111e2565b9150611d8182611d42565b602082019050919050565b5f6020820190508181035f830152611da381611d6a565b9050919050565b7f5a65726f206164647265737300000000000000000000000000000000000000005f82015250565b5f611dde600c836111e2565b9150611de982611daa565b602082019050919050565b5f6020820190508181035f830152611e0b81611dd2565b905091905056fea26469706673582212207b2d14478849ca789d3859d7b51610e9dbe44fdde2d35e7d0f21ec63348a430564736f6c634300081c0033","linkReferences":{}},"methodIdentifiers":{"complete(uint256,bytes32,bytes)":"d75bbdf3","createJob(address,address,uint256,string,address)":"41528812","fund(uint256,bytes)":"e25ba707","getJobStatus(uint256)":"a6c58b63","jobs(uint256)":"180aedf3","nextJobId()":"b0c2aa5e","owner()":"8da5cb5b","reject(uint256,bytes32,bytes)":"41dd26f5","setBudget(uint256,uint256,bytes)":"dd4ae9d4","submit(uint256,bytes32,bytes)":"9e63798d","transferOwnership(address)":"f2fde38b"},"id":0}