{
  "_format": "hh-sol-artifact-1",
  "contractName": "BridgeReceiver",
  "sourceName": "contracts/BridgeReceiver.sol",
  "abi": [
    {
      "inputs": [
        {
          "internalType": "address",
          "name": "_endpoint",
          "type": "address"
        },
        {
          "internalType": "address",
          "name": "_delegate",
          "type": "address"
        },
        {
          "internalType": "address",
          "name": "_agenticCommerce",
          "type": "address"
        }
      ],
      "stateMutability": "nonpayable",
      "type": "constructor"
    },
    {
      "inputs": [],
      "name": "InvalidDelegate",
      "type": "error"
    },
    {
      "inputs": [],
      "name": "InvalidEndpointCall",
      "type": "error"
    },
    {
      "inputs": [],
      "name": "LzTokenUnavailable",
      "type": "error"
    },
    {
      "inputs": [
        {
          "internalType": "uint32",
          "name": "eid",
          "type": "uint32"
        }
      ],
      "name": "NoPeer",
      "type": "error"
    },
    {
      "inputs": [
        {
          "internalType": "uint256",
          "name": "msgValue",
          "type": "uint256"
        }
      ],
      "name": "NotEnoughNative",
      "type": "error"
    },
    {
      "inputs": [
        {
          "internalType": "address",
          "name": "addr",
          "type": "address"
        }
      ],
      "name": "OnlyEndpoint",
      "type": "error"
    },
    {
      "inputs": [
        {
          "internalType": "uint32",
          "name": "eid",
          "type": "uint32"
        },
        {
          "internalType": "bytes32",
          "name": "sender",
          "type": "bytes32"
        }
      ],
      "name": "OnlyPeer",
      "type": "error"
    },
    {
      "inputs": [
        {
          "internalType": "address",
          "name": "owner",
          "type": "address"
        }
      ],
      "name": "OwnableInvalidOwner",
      "type": "error"
    },
    {
      "inputs": [
        {
          "internalType": "address",
          "name": "account",
          "type": "address"
        }
      ],
      "name": "OwnableUnauthorizedAccount",
      "type": "error"
    },
    {
      "anonymous": false,
      "inputs": [
        {
          "indexed": true,
          "internalType": "address",
          "name": "oldAddress",
          "type": "address"
        },
        {
          "indexed": true,
          "internalType": "address",
          "name": "newAddress",
          "type": "address"
        }
      ],
      "name": "AgenticCommerceAddressUpdated",
      "type": "event"
    },
    {
      "anonymous": false,
      "inputs": [
        {
          "indexed": true,
          "internalType": "address",
          "name": "previousOwner",
          "type": "address"
        },
        {
          "indexed": true,
          "internalType": "address",
          "name": "newOwner",
          "type": "address"
        }
      ],
      "name": "OwnershipTransferred",
      "type": "event"
    },
    {
      "anonymous": false,
      "inputs": [
        {
          "indexed": false,
          "internalType": "uint32",
          "name": "eid",
          "type": "uint32"
        },
        {
          "indexed": false,
          "internalType": "bytes32",
          "name": "peer",
          "type": "bytes32"
        }
      ],
      "name": "PeerSet",
      "type": "event"
    },
    {
      "anonymous": false,
      "inputs": [
        {
          "indexed": true,
          "internalType": "uint256",
          "name": "jobId",
          "type": "uint256"
        },
        {
          "indexed": false,
          "internalType": "string",
          "name": "reason",
          "type": "string"
        },
        {
          "indexed": false,
          "internalType": "bytes32",
          "name": "guid",
          "type": "bytes32"
        }
      ],
      "name": "SLABreachReceived",
      "type": "event"
    },
    {
      "inputs": [],
      "name": "agenticCommerce",
      "outputs": [
        {
          "internalType": "address",
          "name": "",
          "type": "address"
        }
      ],
      "stateMutability": "view",
      "type": "function"
    },
    {
      "inputs": [
        {
          "components": [
            {
              "internalType": "uint32",
              "name": "srcEid",
              "type": "uint32"
            },
            {
              "internalType": "bytes32",
              "name": "sender",
              "type": "bytes32"
            },
            {
              "internalType": "uint64",
              "name": "nonce",
              "type": "uint64"
            }
          ],
          "internalType": "struct Origin",
          "name": "origin",
          "type": "tuple"
        }
      ],
      "name": "allowInitializePath",
      "outputs": [
        {
          "internalType": "bool",
          "name": "",
          "type": "bool"
        }
      ],
      "stateMutability": "view",
      "type": "function"
    },
    {
      "inputs": [],
      "name": "endpoint",
      "outputs": [
        {
          "internalType": "contract ILayerZeroEndpointV2",
          "name": "",
          "type": "address"
        }
      ],
      "stateMutability": "view",
      "type": "function"
    },
    {
      "inputs": [
        {
          "components": [
            {
              "internalType": "uint32",
              "name": "srcEid",
              "type": "uint32"
            },
            {
              "internalType": "bytes32",
              "name": "sender",
              "type": "bytes32"
            },
            {
              "internalType": "uint64",
              "name": "nonce",
              "type": "uint64"
            }
          ],
          "internalType": "struct Origin",
          "name": "",
          "type": "tuple"
        },
        {
          "internalType": "bytes",
          "name": "",
          "type": "bytes"
        },
        {
          "internalType": "address",
          "name": "_sender",
          "type": "address"
        }
      ],
      "name": "isComposeMsgSender",
      "outputs": [
        {
          "internalType": "bool",
          "name": "",
          "type": "bool"
        }
      ],
      "stateMutability": "view",
      "type": "function"
    },
    {
      "inputs": [
        {
          "components": [
            {
              "internalType": "uint32",
              "name": "srcEid",
              "type": "uint32"
            },
            {
              "internalType": "bytes32",
              "name": "sender",
              "type": "bytes32"
            },
            {
              "internalType": "uint64",
              "name": "nonce",
              "type": "uint64"
            }
          ],
          "internalType": "struct Origin",
          "name": "_origin",
          "type": "tuple"
        },
        {
          "internalType": "bytes32",
          "name": "_guid",
          "type": "bytes32"
        },
        {
          "internalType": "bytes",
          "name": "_message",
          "type": "bytes"
        },
        {
          "internalType": "address",
          "name": "_executor",
          "type": "address"
        },
        {
          "internalType": "bytes",
          "name": "_extraData",
          "type": "bytes"
        }
      ],
      "name": "lzReceive",
      "outputs": [],
      "stateMutability": "payable",
      "type": "function"
    },
    {
      "inputs": [
        {
          "internalType": "uint32",
          "name": "",
          "type": "uint32"
        },
        {
          "internalType": "bytes32",
          "name": "",
          "type": "bytes32"
        }
      ],
      "name": "nextNonce",
      "outputs": [
        {
          "internalType": "uint64",
          "name": "nonce",
          "type": "uint64"
        }
      ],
      "stateMutability": "view",
      "type": "function"
    },
    {
      "inputs": [],
      "name": "oAppVersion",
      "outputs": [
        {
          "internalType": "uint64",
          "name": "senderVersion",
          "type": "uint64"
        },
        {
          "internalType": "uint64",
          "name": "receiverVersion",
          "type": "uint64"
        }
      ],
      "stateMutability": "pure",
      "type": "function"
    },
    {
      "inputs": [],
      "name": "owner",
      "outputs": [
        {
          "internalType": "address",
          "name": "",
          "type": "address"
        }
      ],
      "stateMutability": "view",
      "type": "function"
    },
    {
      "inputs": [
        {
          "internalType": "uint32",
          "name": "eid",
          "type": "uint32"
        }
      ],
      "name": "peers",
      "outputs": [
        {
          "internalType": "bytes32",
          "name": "peer",
          "type": "bytes32"
        }
      ],
      "stateMutability": "view",
      "type": "function"
    },
    {
      "inputs": [],
      "name": "renounceOwnership",
      "outputs": [],
      "stateMutability": "nonpayable",
      "type": "function"
    },
    {
      "inputs": [
        {
          "internalType": "address",
          "name": "_agenticCommerce",
          "type": "address"
        }
      ],
      "name": "setAgenticCommerce",
      "outputs": [],
      "stateMutability": "nonpayable",
      "type": "function"
    },
    {
      "inputs": [
        {
          "internalType": "address",
          "name": "_delegate",
          "type": "address"
        }
      ],
      "name": "setDelegate",
      "outputs": [],
      "stateMutability": "nonpayable",
      "type": "function"
    },
    {
      "inputs": [
        {
          "internalType": "uint32",
          "name": "_eid",
          "type": "uint32"
        },
        {
          "internalType": "bytes32",
          "name": "_peer",
          "type": "bytes32"
        }
      ],
      "name": "setPeer",
      "outputs": [],
      "stateMutability": "nonpayable",
      "type": "function"
    },
    {
      "inputs": [
        {
          "internalType": "address",
          "name": "newOwner",
          "type": "address"
        }
      ],
      "name": "transferOwnership",
      "outputs": [],
      "stateMutability": "nonpayable",
      "type": "function"
    }
  ],
  "bytecode": "0x60a060405234801561001057600080fd5b50604051610d35380380610d3583398101604081905261002f91610191565b82828181806001600160a01b03811661006257604051631e4fbdf760e01b81526000600482015260240160405180910390fd5b61006b81610125565b506001600160a01b03808316608052811661009957604051632d618d8160e21b815260040160405180910390fd5b60805160405163ca5eb5e160e01b81526001600160a01b0383811660048301529091169063ca5eb5e190602401600060405180830381600087803b1580156100e057600080fd5b505af11580156100f4573d6000803e3d6000fd5b5050600280546001600160a01b0319166001600160a01b039890981697909717909655506101d49650505050505050565b600080546001600160a01b038381166001600160a01b0319831681178455604051919092169283917f8be0079c531659141344cd1fd0a4f28419497f9722a3daafe3b4186f6b6457e09190a35050565b80516001600160a01b038116811461018c57600080fd5b919050565b6000806000606084860312156101a657600080fd5b6101af84610175565b92506101bd60208501610175565b91506101cb60408501610175565b90509250925092565b608051610b386101fd600039600081816101700152818161037901526104880152610b386000f3fe6080604052600436106100dd5760003560e01c806382413eac1161007f578063c1d3692011610059578063c1d3692014610293578063ca5eb5e1146102b3578063f2fde38b146102d3578063ff7bd03d146102f357600080fd5b806382413eac146101fb5780638da5cb5b1461023a578063bb0b6a531461025857600080fd5b80633400288b116100bb5780633400288b1461013e5780635e280f111461015e578063715018a6146101aa5780637d25a05e146101bf57600080fd5b806307e09ad6146100e257806313137d651461010457806317442b7014610117575b600080fd5b3480156100ee57600080fd5b506101026100fd36600461077e565b610313565b005b610102610112366004610801565b610377565b34801561012357600080fd5b50604080516001815260026020820152015b60405180910390f35b34801561014a57600080fd5b506101026101593660046108b4565b610437565b34801561016a57600080fd5b506101927f000000000000000000000000000000000000000000000000000000000000000081565b6040516001600160a01b039091168152602001610135565b3480156101b657600080fd5b5061010261044d565b3480156101cb57600080fd5b506101e26101da3660046108b4565b600092915050565b60405167ffffffffffffffff9091168152602001610135565b34801561020757600080fd5b5061022a6102163660046108de565b6001600160a01b0381163014949350505050565b6040519015158152602001610135565b34801561024657600080fd5b506000546001600160a01b0316610192565b34801561026457600080fd5b50610285610273366004610944565b60016020526000908152604090205481565b604051908152602001610135565b34801561029f57600080fd5b50600254610192906001600160a01b031681565b3480156102bf57600080fd5b506101026102ce36600461077e565b610461565b3480156102df57600080fd5b506101026102ee36600461077e565b6104e7565b3480156102ff57600080fd5b5061022a61030e36600461095f565b610525565b61031b61055b565b6002546040516001600160a01b038084169216907f20212adb5295a059ee3990b5ee2a263318a97da1ad3cd63c68cc62ac75ab839690600090a3600280546001600160a01b0319166001600160a01b0392909216919091179055565b7f00000000000000000000000000000000000000000000000000000000000000006001600160a01b031633146103c7576040516391ac5e4f60e01b81523360048201526024015b60405180910390fd5b602087018035906103e1906103dc908a610944565b610588565b1461041f576103f36020880188610944565b60405163309afaf360e21b815263ffffffff9091166004820152602088013560248201526044016103be565b61042e878787878787876105ca565b50505050505050565b61043f61055b565b61044982826106bd565b5050565b61045561055b565b61045f6000610712565b565b61046961055b565b60405163ca5eb5e160e01b81526001600160a01b0382811660048301527f0000000000000000000000000000000000000000000000000000000000000000169063ca5eb5e190602401600060405180830381600087803b1580156104cc57600080fd5b505af11580156104e0573d6000803e3d6000fd5b5050505050565b6104ef61055b565b6001600160a01b03811661051957604051631e4fbdf760e01b8152600060048201526024016103be565b61052281610712565b50565b600060208201803590600190839061053d9086610944565b63ffffffff1681526020810191909152604001600020541492915050565b6000546001600160a01b0316331461045f5760405163118cdaa760e01b81523360048201526024016103be565b63ffffffff8116600090815260016020526040812054806105c45760405163f6ff4fb760e01b815263ffffffff841660048201526024016103be565b92915050565b6000806105d986880188610991565b91509150817f7524b2511d348642d5d568e8d576ba1cded0407de01bca457334a3444c272ee8828a60405161060f929190610a9c565b60405180910390a260008160405160200161062a9190610abe565b60408051601f19818403018152828252805160209182012060025460008552918401928390526341dd26f560e01b9092529092506001600160a01b0316906341dd26f59061067f908690859060248101610ada565b600060405180830381600087803b15801561069957600080fd5b505af11580156106ad573d6000803e3d6000fd5b5050505050505050505050505050565b63ffffffff8216600081815260016020908152604091829020849055815192835282018390527f238399d427b947898edb290f5ff0f9109849b1c3ba196a42e35f00c50a54b98b910160405180910390a15050565b600080546001600160a01b038381166001600160a01b0319831681178455604051919092169283917f8be0079c531659141344cd1fd0a4f28419497f9722a3daafe3b4186f6b6457e09190a35050565b80356001600160a01b038116811461077957600080fd5b919050565b60006020828403121561079057600080fd5b61079982610762565b9392505050565b6000606082840312156107b257600080fd5b50919050565b60008083601f8401126107ca57600080fd5b50813567ffffffffffffffff8111156107e257600080fd5b6020830191508360208285010111156107fa57600080fd5b9250929050565b600080600080600080600060e0888a03121561081c57600080fd5b61082689896107a0565b965060608801359550608088013567ffffffffffffffff8082111561084a57600080fd5b6108568b838c016107b8565b909750955085915061086a60a08b01610762565b945060c08a013591508082111561088057600080fd5b5061088d8a828b016107b8565b989b979a50959850939692959293505050565b803563ffffffff8116811461077957600080fd5b600080604083850312156108c757600080fd5b6108d0836108a0565b946020939093013593505050565b60008060008060a085870312156108f457600080fd5b6108fe86866107a0565b9350606085013567ffffffffffffffff81111561091a57600080fd5b610926878288016107b8565b9094509250610939905060808601610762565b905092959194509250565b60006020828403121561095657600080fd5b610799826108a0565b60006060828403121561097157600080fd5b61079983836107a0565b634e487b7160e01b600052604160045260246000fd5b600080604083850312156109a457600080fd5b82359150602083013567ffffffffffffffff808211156109c357600080fd5b818501915085601f8301126109d757600080fd5b8135818111156109e9576109e961097b565b604051601f8201601f19908116603f01168101908382118183101715610a1157610a1161097b565b81604052828152886020848701011115610a2a57600080fd5b8260208601602083013760006020848301015280955050505050509250929050565b60005b83811015610a67578181015183820152602001610a4f565b50506000910152565b60008151808452610a88816020860160208601610a4c565b601f01601f19169290920160200192915050565b604081526000610aaf6040830185610a70565b90508260208301529392505050565b60008251610ad0818460208701610a4c565b9190910192915050565b838152826020820152606060408201526000610af96060830184610a70565b9594505050505056fea26469706673582212207483413298e69ec14c5225b9a335e3713cf7b8922a27ae293dfb768a91df095664736f6c63430008140033",
  "linkReferences": {},
  "deployedLinkReferences": {}
}