{
  "_format": "hh-sol-artifact-1",
  "contractName": "BridgeForwarder",
  "sourceName": "contracts/BridgeForwarder.sol",
  "abi": [
    {
      "inputs": [
        {
          "internalType": "address",
          "name": "_endpoint",
          "type": "address"
        },
        {
          "internalType": "address",
          "name": "_delegate",
          "type": "address"
        }
      ],
      "stateMutability": "nonpayable",
      "type": "constructor"
    },
    {
      "inputs": [],
      "name": "InvalidDelegate",
      "type": "error"
    },
    {
      "inputs": [],
      "name": "InvalidEndpointCall",
      "type": "error"
    },
    {
      "inputs": [],
      "name": "LzTokenUnavailable",
      "type": "error"
    },
    {
      "inputs": [
        {
          "internalType": "uint32",
          "name": "eid",
          "type": "uint32"
        }
      ],
      "name": "NoPeer",
      "type": "error"
    },
    {
      "inputs": [
        {
          "internalType": "uint256",
          "name": "msgValue",
          "type": "uint256"
        }
      ],
      "name": "NotEnoughNative",
      "type": "error"
    },
    {
      "inputs": [
        {
          "internalType": "address",
          "name": "addr",
          "type": "address"
        }
      ],
      "name": "OnlyEndpoint",
      "type": "error"
    },
    {
      "inputs": [
        {
          "internalType": "uint32",
          "name": "eid",
          "type": "uint32"
        },
        {
          "internalType": "bytes32",
          "name": "sender",
          "type": "bytes32"
        }
      ],
      "name": "OnlyPeer",
      "type": "error"
    },
    {
      "inputs": [
        {
          "internalType": "address",
          "name": "owner",
          "type": "address"
        }
      ],
      "name": "OwnableInvalidOwner",
      "type": "error"
    },
    {
      "inputs": [
        {
          "internalType": "address",
          "name": "account",
          "type": "address"
        }
      ],
      "name": "OwnableUnauthorizedAccount",
      "type": "error"
    },
    {
      "inputs": [
        {
          "internalType": "address",
          "name": "token",
          "type": "address"
        }
      ],
      "name": "SafeERC20FailedOperation",
      "type": "error"
    },
    {
      "anonymous": false,
      "inputs": [
        {
          "indexed": true,
          "internalType": "address",
          "name": "previousOwner",
          "type": "address"
        },
        {
          "indexed": true,
          "internalType": "address",
          "name": "newOwner",
          "type": "address"
        }
      ],
      "name": "OwnershipTransferred",
      "type": "event"
    },
    {
      "anonymous": false,
      "inputs": [
        {
          "indexed": false,
          "internalType": "uint32",
          "name": "eid",
          "type": "uint32"
        },
        {
          "indexed": false,
          "internalType": "bytes32",
          "name": "peer",
          "type": "bytes32"
        }
      ],
      "name": "PeerSet",
      "type": "event"
    },
    {
      "anonymous": false,
      "inputs": [
        {
          "indexed": true,
          "internalType": "uint32",
          "name": "dstEid",
          "type": "uint32"
        },
        {
          "indexed": true,
          "internalType": "uint256",
          "name": "jobId",
          "type": "uint256"
        },
        {
          "indexed": false,
          "internalType": "string",
          "name": "reason",
          "type": "string"
        },
        {
          "indexed": false,
          "internalType": "bytes32",
          "name": "transferId",
          "type": "bytes32"
        }
      ],
      "name": "SLABreachForwarded",
      "type": "event"
    },
    {
      "inputs": [
        {
          "components": [
            {
              "internalType": "uint32",
              "name": "srcEid",
              "type": "uint32"
            },
            {
              "internalType": "bytes32",
              "name": "sender",
              "type": "bytes32"
            },
            {
              "internalType": "uint64",
              "name": "nonce",
              "type": "uint64"
            }
          ],
          "internalType": "struct Origin",
          "name": "origin",
          "type": "tuple"
        }
      ],
      "name": "allowInitializePath",
      "outputs": [
        {
          "internalType": "bool",
          "name": "",
          "type": "bool"
        }
      ],
      "stateMutability": "view",
      "type": "function"
    },
    {
      "inputs": [],
      "name": "endpoint",
      "outputs": [
        {
          "internalType": "contract ILayerZeroEndpointV2",
          "name": "",
          "type": "address"
        }
      ],
      "stateMutability": "view",
      "type": "function"
    },
    {
      "inputs": [
        {
          "internalType": "uint32",
          "name": "_dstEid",
          "type": "uint32"
        },
        {
          "internalType": "uint256",
          "name": "_jobId",
          "type": "uint256"
        },
        {
          "internalType": "string",
          "name": "_reason",
          "type": "string"
        },
        {
          "internalType": "bytes",
          "name": "_options",
          "type": "bytes"
        }
      ],
      "name": "forwardSLABreach",
      "outputs": [],
      "stateMutability": "payable",
      "type": "function"
    },
    {
      "inputs": [
        {
          "components": [
            {
              "internalType": "uint32",
              "name": "srcEid",
              "type": "uint32"
            },
            {
              "internalType": "bytes32",
              "name": "sender",
              "type": "bytes32"
            },
            {
              "internalType": "uint64",
              "name": "nonce",
              "type": "uint64"
            }
          ],
          "internalType": "struct Origin",
          "name": "",
          "type": "tuple"
        },
        {
          "internalType": "bytes",
          "name": "",
          "type": "bytes"
        },
        {
          "internalType": "address",
          "name": "_sender",
          "type": "address"
        }
      ],
      "name": "isComposeMsgSender",
      "outputs": [
        {
          "internalType": "bool",
          "name": "",
          "type": "bool"
        }
      ],
      "stateMutability": "view",
      "type": "function"
    },
    {
      "inputs": [
        {
          "components": [
            {
              "internalType": "uint32",
              "name": "srcEid",
              "type": "uint32"
            },
            {
              "internalType": "bytes32",
              "name": "sender",
              "type": "bytes32"
            },
            {
              "internalType": "uint64",
              "name": "nonce",
              "type": "uint64"
            }
          ],
          "internalType": "struct Origin",
          "name": "_origin",
          "type": "tuple"
        },
        {
          "internalType": "bytes32",
          "name": "_guid",
          "type": "bytes32"
        },
        {
          "internalType": "bytes",
          "name": "_message",
          "type": "bytes"
        },
        {
          "internalType": "address",
          "name": "_executor",
          "type": "address"
        },
        {
          "internalType": "bytes",
          "name": "_extraData",
          "type": "bytes"
        }
      ],
      "name": "lzReceive",
      "outputs": [],
      "stateMutability": "payable",
      "type": "function"
    },
    {
      "inputs": [
        {
          "internalType": "uint32",
          "name": "",
          "type": "uint32"
        },
        {
          "internalType": "bytes32",
          "name": "",
          "type": "bytes32"
        }
      ],
      "name": "nextNonce",
      "outputs": [
        {
          "internalType": "uint64",
          "name": "nonce",
          "type": "uint64"
        }
      ],
      "stateMutability": "view",
      "type": "function"
    },
    {
      "inputs": [],
      "name": "oAppVersion",
      "outputs": [
        {
          "internalType": "uint64",
          "name": "senderVersion",
          "type": "uint64"
        },
        {
          "internalType": "uint64",
          "name": "receiverVersion",
          "type": "uint64"
        }
      ],
      "stateMutability": "pure",
      "type": "function"
    },
    {
      "inputs": [],
      "name": "owner",
      "outputs": [
        {
          "internalType": "address",
          "name": "",
          "type": "address"
        }
      ],
      "stateMutability": "view",
      "type": "function"
    },
    {
      "inputs": [
        {
          "internalType": "uint32",
          "name": "eid",
          "type": "uint32"
        }
      ],
      "name": "peers",
      "outputs": [
        {
          "internalType": "bytes32",
          "name": "peer",
          "type": "bytes32"
        }
      ],
      "stateMutability": "view",
      "type": "function"
    },
    {
      "inputs": [
        {
          "internalType": "uint32",
          "name": "_dstEid",
          "type": "uint32"
        },
        {
          "internalType": "uint256",
          "name": "_jobId",
          "type": "uint256"
        },
        {
          "internalType": "string",
          "name": "_reason",
          "type": "string"
        },
        {
          "internalType": "bytes",
          "name": "_options",
          "type": "bytes"
        }
      ],
      "name": "quote",
      "outputs": [
        {
          "internalType": "uint256",
          "name": "nativeFee",
          "type": "uint256"
        },
        {
          "internalType": "uint256",
          "name": "lzTokenFee",
          "type": "uint256"
        }
      ],
      "stateMutability": "view",
      "type": "function"
    },
    {
      "inputs": [],
      "name": "renounceOwnership",
      "outputs": [],
      "stateMutability": "nonpayable",
      "type": "function"
    },
    {
      "inputs": [
        {
          "internalType": "address",
          "name": "_delegate",
          "type": "address"
        }
      ],
      "name": "setDelegate",
      "outputs": [],
      "stateMutability": "nonpayable",
      "type": "function"
    },
    {
      "inputs": [
        {
          "internalType": "uint32",
          "name": "_eid",
          "type": "uint32"
        },
        {
          "internalType": "bytes32",
          "name": "_peer",
          "type": "bytes32"
        }
      ],
      "name": "setPeer",
      "outputs": [],
      "stateMutability": "nonpayable",
      "type": "function"
    },
    {
      "inputs": [
        {
          "internalType": "address",
          "name": "newOwner",
          "type": "address"
        }
      ],
      "name": "transferOwnership",
      "outputs": [],
      "stateMutability": "nonpayable",
      "type": "function"
    }
  ],
  "bytecode": "0x60a06040523480156200001157600080fd5b506040516200124d3803806200124d83398101604081905262000034916200017c565b81818181806001600160a01b0381166200006857604051631e4fbdf760e01b81526000600482015260240160405180910390fd5b62000073816200010f565b506001600160a01b038083166080528116620000a257604051632d618d8160e21b815260040160405180910390fd5b60805160405163ca5eb5e160e01b81526001600160a01b0383811660048301529091169063ca5eb5e190602401600060405180830381600087803b158015620000ea57600080fd5b505af1158015620000ff573d6000803e3d6000fd5b50505050505050505050620001b4565b600080546001600160a01b038381166001600160a01b0319831681178455604051919092169283917f8be0079c531659141344cd1fd0a4f28419497f9722a3daafe3b4186f6b6457e09190a35050565b80516001600160a01b03811681146200017757600080fd5b919050565b600080604083850312156200019057600080fd5b6200019b836200015f565b9150620001ab602084016200015f565b90509250929050565b608051611053620001fa600039600081816101500152818161031d015281816104ec01528181610788015281816108760152818161096d0152610a2601526110536000f3fe6080604052600436106100dd5760003560e01c80638da5cb5b1161007f578063ca5eb5e111610059578063ca5eb5e114610286578063f2fde38b146102a6578063fbcf4b01146102c6578063ff7bd03d146102fb57600080fd5b80638da5cb5b1461021a578063aade97bc14610238578063bb0b6a531461024b57600080fd5b80635e280f11116100bb5780635e280f111461013e578063715018a61461018a5780637d25a05e1461019f57806382413eac146101db57600080fd5b806313137d65146100e257806317442b70146100f75780633400288b1461011e575b600080fd5b6100f56100f0366004610bb2565b61031b565b005b34801561010357600080fd5b50604080516001815260026020820152015b60405180910390f35b34801561012a57600080fd5b506100f5610139366004610c6b565b6103cc565b34801561014a57600080fd5b506101727f000000000000000000000000000000000000000000000000000000000000000081565b6040516001600160a01b039091168152602001610115565b34801561019657600080fd5b506100f56103e2565b3480156101ab57600080fd5b506101c26101ba366004610c6b565b600092915050565b60405167ffffffffffffffff9091168152602001610115565b3480156101e757600080fd5b5061020a6101f6366004610c95565b6001600160a01b0381163014949350505050565b6040519015158152602001610115565b34801561022657600080fd5b506000546001600160a01b0316610172565b6100f5610246366004610cfc565b6103f6565b34801561025757600080fd5b50610278610266366004610d86565b60016020526000908152604090205481565b604051908152602001610115565b34801561029257600080fd5b506100f56102a1366004610da8565b6104c5565b3480156102b257600080fd5b506100f56102c1366004610da8565b61054b565b3480156102d257600080fd5b506102e66102e1366004610cfc565b610589565b60408051928352602083019190915201610115565b34801561030757600080fd5b5061020a610316366004610dc5565b61060b565b7f00000000000000000000000000000000000000000000000000000000000000006001600160a01b0316331461036b576040516391ac5e4f60e01b81523360048201526024015b60405180910390fd5b6020870180359061038590610380908a610d86565b610641565b146103c3576103976020880188610d86565b60405163309afaf360e21b815263ffffffff909116600482015260208801356024820152604401610362565b50505050505050565b6103d4610683565b6103de82826106b0565b5050565b6103ea610683565b6103f46000610705565b565b600085858560405160200161040d93929190610e0a565b60408051601f198184030181528282018252348352600060208481018290528351601f880182900482028101820190945286845291945091610471918b91869189908990819084018382808284376000920191909152508892503391506107559050565b600001519050878963ffffffff167f20fd921b9dfcd76d5c9f7966f470fa8c1e3909e11eca75adc3361b4254e10ab98989856040516104b293929190610e24565b60405180910390a3505050505050505050565b6104cd610683565b60405163ca5eb5e160e01b81526001600160a01b0382811660048301527f0000000000000000000000000000000000000000000000000000000000000000169063ca5eb5e190602401600060405180830381600087803b15801561053057600080fd5b505af1158015610544573d6000803e3d6000fd5b5050505050565b610553610683565b6001600160a01b03811661057d57604051631e4fbdf760e01b815260006004820152602401610362565b61058681610705565b50565b60008060008787876040516020016105a393929190610e0a565b60408051601f198184030181526020601f880181900481028401810190925286835292506000916105f2918c9185918a908a908190840183828082843760009201829052509250610860915050565b8051602090910151909b909a5098505050505050505050565b60006020820180359060019083906106239086610d86565b63ffffffff1681526020810191909152604001600020541492915050565b63ffffffff81166000908152600160205260408120548061067d5760405163f6ff4fb760e01b815263ffffffff84166004820152602401610362565b92915050565b6000546001600160a01b031633146103f45760405163118cdaa760e01b8152336004820152602401610362565b63ffffffff8216600081815260016020908152604091829020849055815192835282018390527f238399d427b947898edb290f5ff0f9109849b1c3ba196a42e35f00c50a54b98b910160405180910390a15050565b600080546001600160a01b038381166001600160a01b0319831681178455604051919092169283917f8be0079c531659141344cd1fd0a4f28419497f9722a3daafe3b4186f6b6457e09190a35050565b61075d610af4565b600061076c8460000151610941565b602085015190915015610786576107868460200151610969565b7f00000000000000000000000000000000000000000000000000000000000000006001600160a01b0316632637a450826040518060a001604052808b63ffffffff1681526020016107d68c610641565b81526020018a815260200189815260200160008960200151111515815250866040518463ffffffff1660e01b8152600401610812929190610e8e565b60806040518083038185885af1158015610830573d6000803e3d6000fd5b50505050506040513d601f19601f820116820180604052508101906108559190610f64565b979650505050505050565b60408051808201909152600080825260208201527f00000000000000000000000000000000000000000000000000000000000000006001600160a01b031663ddc28c586040518060a001604052808863ffffffff1681526020016108c389610641565b8152602001878152602001868152602001851515815250306040518363ffffffff1660e01b81526004016108f8929190610e8e565b6040805180830381865afa158015610914573d6000803e3d6000fd5b505050506040513d601f19601f820116820180604052508101906109389190610fe4565b95945050505050565b6000813414610965576040516304fb820960e51b8152346004820152602401610362565b5090565b60007f00000000000000000000000000000000000000000000000000000000000000006001600160a01b031663e4fe1d946040518163ffffffff1660e01b8152600401602060405180830381865afa1580156109c9573d6000803e3d6000fd5b505050506040513d601f19601f820116820180604052508101906109ed9190611000565b90506001600160a01b038116610a16576040516329b99a9560e11b815260040160405180910390fd5b6103de6001600160a01b038216337f000000000000000000000000000000000000000000000000000000000000000085610a54848484846001610a82565b610a7c57604051635274afe760e01b81526001600160a01b0385166004820152602401610362565b50505050565b6040516323b872dd60e01b60008181526001600160a01b038781166004528616602452604485905291602083606481808c5af192506001600051148316610ae2578383151615610ad5573d6000823e3d81fd5b6000883b113d1516831692505b60405250600060605295945050505050565b604051806060016040528060008019168152602001600067ffffffffffffffff168152602001610b37604051806040016040528060008152602001600081525090565b905290565b600060608284031215610b4e57600080fd5b50919050565b60008083601f840112610b6657600080fd5b50813567ffffffffffffffff811115610b7e57600080fd5b602083019150836020828501011115610b9657600080fd5b9250929050565b6001600160a01b038116811461058657600080fd5b600080600080600080600060e0888a031215610bcd57600080fd5b610bd78989610b3c565b965060608801359550608088013567ffffffffffffffff80821115610bfb57600080fd5b610c078b838c01610b54565b909750955060a08a01359150610c1c82610b9d565b90935060c08901359080821115610c3257600080fd5b50610c3f8a828b01610b54565b989b979a50959850939692959293505050565b803563ffffffff81168114610c6657600080fd5b919050565b60008060408385031215610c7e57600080fd5b610c8783610c52565b946020939093013593505050565b60008060008060a08587031215610cab57600080fd5b610cb58686610b3c565b9350606085013567ffffffffffffffff811115610cd157600080fd5b610cdd87828801610b54565b9094509250506080850135610cf181610b9d565b939692955090935050565b60008060008060008060808789031215610d1557600080fd5b610d1e87610c52565b955060208701359450604087013567ffffffffffffffff80821115610d4257600080fd5b610d4e8a838b01610b54565b90965094506060890135915080821115610d6757600080fd5b50610d7489828a01610b54565b979a9699509497509295939492505050565b600060208284031215610d9857600080fd5b610da182610c52565b9392505050565b600060208284031215610dba57600080fd5b8135610da181610b9d565b600060608284031215610dd757600080fd5b610da18383610b3c565b81835281816020850137506000828201602090810191909152601f909101601f19169091010190565b838152604060208201526000610938604083018486610de1565b604081526000610e38604083018587610de1565b9050826020830152949350505050565b6000815180845260005b81811015610e6e57602081850181015186830182015201610e52565b506000602082860101526020601f19601f83011685010191505092915050565b6040815263ffffffff8351166040820152602083015160608201526000604084015160a06080840152610ec460e0840182610e48565b90506060850151603f198483030160a0850152610ee18282610e48565b60809690960151151560c08501525050506001600160a01b039190911660209091015290565b600060408284031215610f1957600080fd5b6040516040810181811067ffffffffffffffff82111715610f4a57634e487b7160e01b600052604160045260246000fd5b604052825181526020928301519281019290925250919050565b600060808284031215610f7657600080fd5b6040516060810167ffffffffffffffff8282108183111715610fa857634e487b7160e01b600052604160045260246000fd5b8160405284518352602085015191508082168214610fc557600080fd5b506020820152610fd88460408501610f07565b60408201529392505050565b600060408284031215610ff657600080fd5b610da18383610f07565b60006020828403121561101257600080fd5b8151610da181610b9d56fea26469706673582212202c0892dd98a79da98793ad38dcb184700f0d3c3a13fdd9f1686a0c0cdd33939764736f6c63430008140033",
  "linkReferences": {},
  "deployedLinkReferences": {}
}