{
  "_format": "hh-sol-artifact-1",
  "contractName": "MockAgenticCommerce",
  "sourceName": "contracts/mocks/MockAgenticCommerce.sol",
  "abi": [
    {
      "anonymous": false,
      "inputs": [
        {
          "indexed": true,
          "internalType": "uint256",
          "name": "jobId",
          "type": "uint256"
        },
        {
          "indexed": true,
          "internalType": "address",
          "name": "client",
          "type": "address"
        },
        {
          "indexed": true,
          "internalType": "address",
          "name": "provider",
          "type": "address"
        }
      ],
      "name": "JobCreated",
      "type": "event"
    },
    {
      "anonymous": false,
      "inputs": [
        {
          "indexed": true,
          "internalType": "uint256",
          "name": "jobId",
          "type": "uint256"
        },
        {
          "indexed": false,
          "internalType": "bytes32",
          "name": "reason",
          "type": "bytes32"
        }
      ],
      "name": "JobRejected",
      "type": "event"
    },
    {
      "inputs": [
        {
          "internalType": "address",
          "name": "_provider",
          "type": "address"
        }
      ],
      "name": "createJob",
      "outputs": [
        {
          "internalType": "uint256",
          "name": "",
          "type": "uint256"
        }
      ],
      "stateMutability": "nonpayable",
      "type": "function"
    },
    {
      "inputs": [
        {
          "internalType": "uint256",
          "name": "jobId",
          "type": "uint256"
        }
      ],
      "name": "getJobStatus",
      "outputs": [
        {
          "internalType": "uint8",
          "name": "",
          "type": "uint8"
        }
      ],
      "stateMutability": "view",
      "type": "function"
    },
    {
      "inputs": [
        {
          "internalType": "uint256",
          "name": "",
          "type": "uint256"
        }
      ],
      "name": "jobs",
      "outputs": [
        {
          "internalType": "uint256",
          "name": "id",
          "type": "uint256"
        },
        {
          "internalType": "address",
          "name": "client",
          "type": "address"
        },
        {
          "internalType": "address",
          "name": "provider",
          "type": "address"
        },
        {
          "internalType": "enum MockAgenticCommerce.JobStatus",
          "name": "status",
          "type": "uint8"
        },
        {
          "internalType": "bytes32",
          "name": "reason",
          "type": "bytes32"
        }
      ],
      "stateMutability": "view",
      "type": "function"
    },
    {
      "inputs": [],
      "name": "nextJobId",
      "outputs": [
        {
          "internalType": "uint256",
          "name": "",
          "type": "uint256"
        }
      ],
      "stateMutability": "view",
      "type": "function"
    },
    {
      "inputs": [
        {
          "internalType": "uint256",
          "name": "jobId",
          "type": "uint256"
        },
        {
          "internalType": "bytes32",
          "name": "reason",
          "type": "bytes32"
        },
        {
          "internalType": "bytes",
          "name": "",
          "type": "bytes"
        }
      ],
      "name": "reject",
      "outputs": [],
      "stateMutability": "nonpayable",
      "type": "function"
    }
  ],
  "bytecode": "0x60806040526001805534801561001457600080fd5b506104a9806100246000396000f3fe608060405234801561001057600080fd5b50600436106100575760003560e01c8063180aedf31461005c57806341dd26f5146100c5578063a6c58b63146100da578063b0c2aa5e146100ff578063d004e98514610116575b600080fd5b6100ab61006a36600461031e565b600060208190529081526040902080546001820154600283015460039093015491926001600160a01b039182169291811691600160a01b90910460ff169085565b6040516100bc95949392919061034d565b60405180910390f35b6100d86100d336600461039c565b610129565b005b6100ed6100e836600461031e565b6101e2565b60405160ff90911681526020016100bc565b61010860015481565b6040519081526020016100bc565b61010861012436600461041c565b610215565b600084815260208190526040812054900361017f5760405162461bcd60e51b8152602060048201526012602482015271129bd888191bd95cc81b9bdd08195e1a5cdd60721b604482015260640160405180910390fd5b6000848152602081815260409182902060028101805460ff60a01b1916600160a21b1790556003018590558151858152915186927f0854a7c78c93bd827e71843f970b508d4cdc63d0c9fd44cf7238a61ec5501f9292908290030190a250505050565b600081815260208190526040812060020154600160a01b900460ff16600581111561020f5761020f610337565b92915050565b60018054600091829190826102298361044c565b909155506040805160a0810182528281523360208083019182526001600160a01b03888116848601908152600160608601818152600060808801819052898152948590529690932085518155935192840180549383166001600160a01b03199485161790555160028401805491909216928116831782559451959650929491939192916001600160a81b03191617600160a01b8360058111156102ce576102ce610337565b0217905550608091909101516003909101556040516001600160a01b03841690339083907fb8a95c94eaef926728b4c32140db94a2588d56eb892b916b7cce579d783e19a390600090a492915050565b60006020828403121561033057600080fd5b5035919050565b634e487b7160e01b600052602160045260246000fd5b8581526001600160a01b0385811660208301528416604082015260a081016006841061038957634e487b7160e01b600052602160045260246000fd5b6060820193909352608001529392505050565b600080600080606085870312156103b257600080fd5b8435935060208501359250604085013567ffffffffffffffff808211156103d857600080fd5b818701915087601f8301126103ec57600080fd5b8135818111156103fb57600080fd5b88602082850101111561040d57600080fd5b95989497505060200194505050565b60006020828403121561042e57600080fd5b81356001600160a01b038116811461044557600080fd5b9392505050565b60006001820161046c57634e487b7160e01b600052601160045260246000fd5b506001019056fea2646970667358221220981ec4042abf453f460dfebbeca1f702cc095da1515acd312423ad07849e643764736f6c63430008140033",
  "linkReferences": {},
  "deployedLinkReferences": {}
}