{"abi":[{"type":"function","name":"cancelIntent","inputs":[{"name":"_id","type":"uint256","internalType":"uint256"}],"outputs":[],"stateMutability":"nonpayable"},{"type":"function","name":"getActiveCount","inputs":[],"outputs":[{"name":"","type":"uint256","internalType":"uint256"}],"stateMutability":"view"},{"type":"function","name":"getActiveIntents","inputs":[],"outputs":[{"name":"","type":"tuple[]","internalType":"struct IntentRegistry.Intent[]","components":[{"name":"id","type":"uint256","internalType":"uint256"},{"name":"agent","type":"address","internalType":"address"},{"name":"intentType","type":"uint8","internalType":"enum IntentRegistry.IntentType"},{"name":"category","type":"string","internalType":"string"},{"name":"title","type":"string","internalType":"string"},{"name":"description","type":"string","internalType":"string"},{"name":"budgetMin","type":"uint256","internalType":"uint256"},{"name":"budgetMax","type":"uint256","internalType":"uint256"},{"name":"createdAt","type":"uint256","internalType":"uint256"},{"name":"status","type":"uint8","internalType":"enum IntentRegistry.IntentStatus"}]}],"stateMutability":"view"},{"type":"function","name":"getIntentsByType","inputs":[{"name":"_intentType","type":"uint8","internalType":"enum IntentRegistry.IntentType"}],"outputs":[{"name":"","type":"tuple[]","internalType":"struct IntentRegistry.Intent[]","components":[{"name":"id","type":"uint256","internalType":"uint256"},{"name":"agent","type":"address","internalType":"address"},{"name":"intentType","type":"uint8","internalType":"enum IntentRegistry.IntentType"},{"name":"category","type":"string","internalType":"string"},{"name":"title","type":"string","internalType":"string"},{"name":"description","type":"string","internalType":"string"},{"name":"budgetMin","type":"uint256","internalType":"uint256"},{"name":"budgetMax","type":"uint256","internalType":"uint256"},{"name":"createdAt","type":"uint256","internalType":"uint256"},{"name":"status","type":"uint8","internalType":"enum IntentRegistry.IntentStatus"}]}],"stateMutability":"view"},{"type":"function","name":"intents","inputs":[{"name":"","type":"uint256","internalType":"uint256"}],"outputs":[{"name":"id","type":"uint256","internalType":"uint256"},{"name":"agent","type":"address","internalType":"address"},{"name":"intentType","type":"uint8","internalType":"enum IntentRegistry.IntentType"},{"name":"category","type":"string","internalType":"string"},{"name":"title","type":"string","internalType":"string"},{"name":"description","type":"string","internalType":"string"},{"name":"budgetMin","type":"uint256","internalType":"uint256"},{"name":"budgetMax","type":"uint256","internalType":"uint256"},{"name":"createdAt","type":"uint256","internalType":"uint256"},{"name":"status","type":"uint8","internalType":"enum IntentRegistry.IntentStatus"}],"stateMutability":"view"},{"type":"function","name":"markFulfilled","inputs":[{"name":"_id","type":"uint256","internalType":"uint256"},{"name":"_jobId","type":"uint256","internalType":"uint256"}],"outputs":[],"stateMutability":"nonpayable"},{"type":"function","name":"nextIntentId","inputs":[],"outputs":[{"name":"","type":"uint256","internalType":"uint256"}],"stateMutability":"view"},{"type":"function","name":"postIntent","inputs":[{"name":"_intentType","type":"uint8","internalType":"enum IntentRegistry.IntentType"},{"name":"_category","type":"string","internalType":"string"},{"name":"_title","type":"string","internalType":"string"},{"name":"_description","type":"string","internalType":"string"},{"name":"_budgetMin","type":"uint256","internalType":"uint256"},{"name":"_budgetMax","type":"uint256","internalType":"uint256"}],"outputs":[{"name":"","type":"uint256","internalType":"uint256"}],"stateMutability":"nonpayable"},{"type":"event","name":"IntentCancelled","inputs":[{"name":"id","type":"uint256","indexed":true,"internalType":"uint256"},{"name":"agent","type":"address","indexed":true,"internalType":"address"}],"anonymous":false},{"type":"event","name":"IntentFulfilled","inputs":[{"name":"id","type":"uint256","indexed":true,"internalType":"uint256"},{"name":"agent","type":"address","indexed":true,"internalType":"address"},{"name":"jobId","type":"uint256","indexed":false,"internalType":"uint256"}],"anonymous":false},{"type":"event","name":"IntentPosted","inputs":[{"name":"id","type":"uint256","indexed":true,"internalType":"uint256"},{"name":"agent","type":"address","indexed":true,"internalType":"address"},{"name":"intentType","type":"uint8","indexed":false,"internalType":"enum IntentRegistry.IntentType"},{"name":"category","type":"string","indexed":false,"internalType":"string"},{"name":"title","type":"string","indexed":false,"internalType":"string"},{"name":"budgetMin","type":"uint256","indexed":false,"internalType":"uint256"},{"name":"budgetMax","type":"uint256","indexed":false,"internalType":"uint256"}],"anonymous":false}],"bytecode":{"object":"0x608060405260015f553480156012575f5ffd5b506121f9806100205f395ff3fe608060405234801561000f575f5ffd5b5060043610610086575f3560e01c80639b7b7b1e116100595780639b7b7b1e1461011b578063a0a31aac14610139578063ac38e18d14610155578063eadc72881461018557610086565b8063276fdc331461008a57806346a1a095146100a857806363338b17146100e157806383e48c86146100ff575b5f5ffd5b6100926101b5565b60405161009f9190611785565b60405180910390f35b6100c260048036038101906100bd91906117d7565b610532565b6040516100d89a99989796959493929190611886565b60405180910390f35b6100e961074c565b6040516100f69190611935565b60405180910390f35b6101196004803603810190610114919061194e565b610758565b005b610123610955565b6040516101309190611935565b60405180910390f35b610153600480360381019061014e91906117d7565b61095a565b005b61016f600480360381019061016a9190611a10565b610af2565b60405161017c9190611935565b60405180910390f35b61019f600480360381019061019a9190611af9565b610e91565b6040516101ac9190611785565b60405180910390f35b60605f60028054905090505f8167ffffffffffffffff8111156101db576101da611b24565b5b60405190808252806020026020018201604052801561021457816020015b6102016113df565b8152602001906001900390816101f95790505b5090505f5f90505b828110156105295760015f6002838154811061023b5761023a611b51565b5b905f5260205f20015481526020019081526020015f20604051806101400160405290815f8201548152602001600182015f9054906101000a900473ffffffffffffffffffffffffffffffffffffffff1673ffffffffffffffffffffffffffffffffffffffff1673ffffffffffffffffffffffffffffffffffffffff1681526020016001820160149054906101000a900460ff1660018111156102e0576102df6114e5565b5b60018111156102f2576102f16114e5565b5b815260200160028201805461030690611bab565b80601f016020809104026020016040519081016040528092919081815260200182805461033290611bab565b801561037d5780601f106103545761010080835404028352916020019161037d565b820191905f5260205f20905b81548152906001019060200180831161036057829003601f168201915b5050505050815260200160038201805461039690611bab565b80601f01602080910402602001604051908101604052809291908181526020018280546103c290611bab565b801561040d5780601f106103e45761010080835404028352916020019161040d565b820191905f5260205f20905b8154815290600101906020018083116103f057829003601f168201915b5050505050815260200160048201805461042690611bab565b80601f016020809104026020016040519081016040528092919081815260200182805461045290611bab565b801561049d5780601f106104745761010080835404028352916020019161049d565b820191905f5260205f20905b81548152906001019060200180831161048057829003601f168201915b50505050508152602001600582015481526020016006820154815260200160078201548152602001600882015f9054906101000a900460ff1660028111156104e8576104e76114e5565b5b60028111156104fa576104f96114e5565b5b8152505082828151811061051157610510611b51565b5b6020026020010181905250808060010191505061021c565b50809250505090565b6001602052805f5260405f205f91509050805f015490806001015f9054906101000a900473ffffffffffffffffffffffffffffffffffffffff16908060010160149054906101000a900460ff169080600201805461058f90611bab565b80601f01602080910402602001604051908101604052809291908181526020018280546105bb90611bab565b80156106065780601f106105dd57610100808354040283529160200191610606565b820191905f5260205f20905b8154815290600101906020018083116105e957829003601f168201915b50505050509080600301805461061b90611bab565b80601f016020809104026020016040519081016040528092919081815260200182805461064790611bab565b80156106925780601f1061066957610100808354040283529160200191610692565b820191905f5260205f20905b81548152906001019060200180831161067557829003601f168201915b5050505050908060040180546106a790611bab565b80601f01602080910402602001604051908101604052809291908181526020018280546106d390611bab565b801561071e5780601f106106f55761010080835404028352916020019161071e565b820191905f5260205f20905b81548152906001019060200180831161070157829003601f168201915b505050505090806005015490806006015490806007015490806008015f9054906101000a900460ff1690508a565b5f600280549050905090565b5f60015f8481526020019081526020015f2090503373ffffffffffffffffffffffffffffffffffffffff16816001015f9054906101000a900473ffffffffffffffffffffffffffffffffffffffff1673ffffffffffffffffffffffffffffffffffffffff1614806107f457503073ffffffffffffffffffffffffffffffffffffffff163373ffffffffffffffffffffffffffffffffffffffff16145b610833576040517f08c379a000000000000000000000000000000000000000000000000000000000815260040161082a90611c25565b60405180910390fd5b5f6002811115610846576108456114e5565b5b816008015f9054906101000a900460ff166002811115610869576108686114e5565b5b146108a9576040517f08c379a00000000000000000000000000000000000000000000000000000000081526004016108a090611c8d565b60405180910390fd5b6001816008015f6101000a81548160ff021916908360028111156108d0576108cf6114e5565b5b02179055506108de83611321565b806001015f9054906101000a900473ffffffffffffffffffffffffffffffffffffffff1673ffffffffffffffffffffffffffffffffffffffff16837f3692fc66bf5230b5acd3aff5a628da7374aef1e628ed32a443207f0581cbefa1846040516109489190611935565b60405180910390a3505050565b5f5481565b5f60015f8381526020019081526020015f2090503373ffffffffffffffffffffffffffffffffffffffff16816001015f9054906101000a900473ffffffffffffffffffffffffffffffffffffffff1673ffffffffffffffffffffffffffffffffffffffff16146109ff576040517f08c379a00000000000000000000000000000000000000000000000000000000081526004016109f690611cf5565b60405180910390fd5b5f6002811115610a1257610a116114e5565b5b816008015f9054906101000a900460ff166002811115610a3557610a346114e5565b5b14610a75576040517f08c379a0000000000000000000000000000000000000000000000000000000008152600401610a6c90611c8d565b60405180910390fd5b6002816008015f6101000a81548160ff02191690836002811115610a9c57610a9b6114e5565b5b0217905550610aaa82611321565b3373ffffffffffffffffffffffffffffffffffffffff16827f48539a6710fcc0ad9cae060e0c3788155ce5246980a2a7590c2c7ebdfcd4cccd60405160405180910390a35050565b5f5f8787905011610b38576040517f08c379a0000000000000000000000000000000000000000000000000000000008152600401610b2f90611d5d565b60405180910390fd5b82821015610b7b576040517f08c379a0000000000000000000000000000000000000000000000000000000008152600401610b7290611dc5565b60405180910390fd5b5f5f5f815480929190610b8d90611e10565b9190505590506040518061014001604052808281526020013373ffffffffffffffffffffffffffffffffffffffff1681526020018c6001811115610bd457610bd36114e5565b5b81526020018b8b8080601f0160208091040260200160405190810160405280939291908181526020018383808284375f81840152601f19601f82011690508083019250505050505050815260200189898080601f0160208091040260200160405190810160405280939291908181526020018383808284375f81840152601f19601f82011690508083019250505050505050815260200187878080601f0160208091040260200160405190810160405280939291908181526020018383808284375f81840152601f19601f8201169050808301925050505050505081526020018581526020018481526020014281526020015f6002811115610cd957610cd86114e5565b5b81525060015f8381526020019081526020015f205f820151815f01556020820151816001015f6101000a81548173ffffffffffffffffffffffffffffffffffffffff021916908373ffffffffffffffffffffffffffffffffffffffff16021790555060408201518160010160146101000a81548160ff02191690836001811115610d6657610d656114e5565b5b02179055506060820151816002019081610d809190611ff7565b506080820151816003019081610d969190611ff7565b5060a0820151816004019081610dac9190611ff7565b5060c0820151816005015560e082015181600601556101008201518160070155610120820151816008015f6101000a81548160ff02191690836002811115610df757610df66114e5565b5b0217905550905050600281908060018154018082558091505060019003905f5260205f20015f90919091909150553373ffffffffffffffffffffffffffffffffffffffff16817f12f5796be572154adc5b6a34211aaa71985ac4e45ef29e9e671b1700d44bcc208d8d8d8d8d8b8b604051610e789796959493929190612100565b60405180910390a3809150509998505050505050505050565b60605f5f90505f5f90505b600280549050811015610f2d57836001811115610ebc57610ebb6114e5565b5b60015f60028481548110610ed357610ed2611b51565b5b905f5260205f20015481526020019081526020015f2060010160149054906101000a900460ff166001811115610f0c57610f0b6114e5565b5b03610f20578180610f1c90611e10565b9250505b8080600101915050610e9c565b505f8167ffffffffffffffff811115610f4957610f48611b24565b5b604051908082528060200260200182016040528015610f8257816020015b610f6f6113df565b815260200190600190039081610f675790505b5090505f5f90505f5f90505b60028054905081101561131557856001811115610fae57610fad6114e5565b5b60015f60028481548110610fc557610fc4611b51565b5b905f5260205f20015481526020019081526020015f2060010160149054906101000a900460ff166001811115610ffe57610ffd6114e5565b5b036113085760015f6002838154811061101a57611019611b51565b5b905f5260205f20015481526020019081526020015f20604051806101400160405290815f8201548152602001600182015f9054906101000a900473ffffffffffffffffffffffffffffffffffffffff1673ffffffffffffffffffffffffffffffffffffffff1673ffffffffffffffffffffffffffffffffffffffff1681526020016001820160149054906101000a900460ff1660018111156110bf576110be6114e5565b5b60018111156110d1576110d06114e5565b5b81526020016002820180546110e590611bab565b80601f016020809104026020016040519081016040528092919081815260200182805461111190611bab565b801561115c5780601f106111335761010080835404028352916020019161115c565b820191905f5260205f20905b81548152906001019060200180831161113f57829003601f168201915b5050505050815260200160038201805461117590611bab565b80601f01602080910402602001604051908101604052809291908181526020018280546111a190611bab565b80156111ec5780601f106111c3576101008083540402835291602001916111ec565b820191905f5260205f20905b8154815290600101906020018083116111cf57829003601f168201915b5050505050815260200160048201805461120590611bab565b80601f016020809104026020016040519081016040528092919081815260200182805461123190611bab565b801561127c5780601f106112535761010080835404028352916020019161127c565b820191905f5260205f20905b81548152906001019060200180831161125f57829003601f168201915b50505050508152602001600582015481526020016006820154815260200160078201548152602001600882015f9054906101000a900460ff1660028111156112c7576112c66114e5565b5b60028111156112d9576112d86114e5565b5b815250508383806112e990611e10565b9450815181106112fc576112fb611b51565b5b60200260200101819052505b8080600101915050610f8e565b50819350505050919050565b5f5f90505b6002805490508110156113db57816002828154811061134857611347611b51565b5b905f5260205f200154036113ce576002600160028054905061136a9190612163565b8154811061137b5761137a611b51565b5b905f5260205f2001546002828154811061139857611397611b51565b5b905f5260205f20018190555060028054806113b6576113b5612196565b5b600190038181905f5260205f20015f905590556113db565b8080600101915050611326565b5050565b6040518061014001604052805f81526020015f73ffffffffffffffffffffffffffffffffffffffff1681526020015f60018111156114205761141f6114e5565b5b81526020016060815260200160608152602001606081526020015f81526020015f81526020015f81526020015f600281111561145f5761145e6114e5565b5b81525090565b5f81519050919050565b5f82825260208201905092915050565b5f819050602082019050919050565b5f819050919050565b6114a08161148e565b82525050565b5f73ffffffffffffffffffffffffffffffffffffffff82169050919050565b5f6114cf826114a6565b9050919050565b6114df816114c5565b82525050565b7f4e487b71000000000000000000000000000000000000000000000000000000005f52602160045260245ffd5b60028110611523576115226114e5565b5b50565b5f81905061153382611512565b919050565b5f61154282611526565b9050919050565b61155281611538565b82525050565b5f81519050919050565b5f82825260208201905092915050565b8281835e5f83830152505050565b5f601f19601f8301169050919050565b5f61159a82611558565b6115a48185611562565b93506115b4818560208601611572565b6115bd81611580565b840191505092915050565b600381106115d9576115d86114e5565b5b50565b5f8190506115e9826115c8565b919050565b5f6115f8826115dc565b9050919050565b611608816115ee565b82525050565b5f61014083015f8301516116245f860182611497565b50602083015161163760208601826114d6565b50604083015161164a6040860182611549565b50606083015184820360608601526116628282611590565b9150506080830151848203608086015261167c8282611590565b91505060a083015184820360a08601526116968282611590565b91505060c08301516116ab60c0860182611497565b5060e08301516116be60e0860182611497565b506101008301516116d3610100860182611497565b506101208301516116e86101208601826115ff565b508091505092915050565b5f6116fe838361160e565b905092915050565b5f602082019050919050565b5f61171c82611465565b611726818561146f565b9350836020820285016117388561147f565b805f5b85811015611773578484038952815161175485826116f3565b945061175f83611706565b925060208a0199505060018101905061173b565b50829750879550505050505092915050565b5f6020820190508181035f83015261179d8184611712565b905092915050565b5f5ffd5b5f5ffd5b6117b68161148e565b81146117c0575f5ffd5b50565b5f813590506117d1816117ad565b92915050565b5f602082840312156117ec576117eb6117a5565b5b5f6117f9848285016117c3565b91505092915050565b61180b8161148e565b82525050565b61181a816114c5565b82525050565b61182981611538565b82525050565b5f82825260208201905092915050565b5f61184982611558565b611853818561182f565b9350611863818560208601611572565b61186c81611580565b840191505092915050565b611880816115ee565b82525050565b5f6101408201905061189a5f83018d611802565b6118a7602083018c611811565b6118b4604083018b611820565b81810360608301526118c6818a61183f565b905081810360808301526118da818961183f565b905081810360a08301526118ee818861183f565b90506118fd60c0830187611802565b61190a60e0830186611802565b611918610100830185611802565b611926610120830184611877565b9b9a5050505050505050505050565b5f6020820190506119485f830184611802565b92915050565b5f5f60408385031215611964576119636117a5565b5b5f611971858286016117c3565b9250506020611982858286016117c3565b9150509250929050565b60028110611998575f5ffd5b50565b5f813590506119a98161198c565b92915050565b5f5ffd5b5f5ffd5b5f5ffd5b5f5f83601f8401126119d0576119cf6119af565b5b8235905067ffffffffffffffff8111156119ed576119ec6119b3565b5b602083019150836001820283011115611a0957611a086119b7565b5b9250929050565b5f5f5f5f5f5f5f5f5f60c08a8c031215611a2d57611a2c6117a5565b5b5f611a3a8c828d0161199b565b99505060208a013567ffffffffffffffff811115611a5b57611a5a6117a9565b5b611a678c828d016119bb565b985098505060408a013567ffffffffffffffff811115611a8a57611a896117a9565b5b611a968c828d016119bb565b965096505060608a013567ffffffffffffffff811115611ab957611ab86117a9565b5b611ac58c828d016119bb565b94509450506080611ad88c828d016117c3565b92505060a0611ae98c828d016117c3565b9150509295985092959850929598565b5f60208284031215611b0e57611b0d6117a5565b5b5f611b1b8482850161199b565b91505092915050565b7f4e487b71000000000000000000000000000000000000000000000000000000005f52604160045260245ffd5b7f4e487b71000000000000000000000000000000000000000000000000000000005f52603260045260245ffd5b7f4e487b71000000000000000000000000000000000000000000000000000000005f52602260045260245ffd5b5f6002820490506001821680611bc257607f821691505b602082108103611bd557611bd4611b7e565b5b50919050565b7f4e6f7420617574686f72697a65640000000000000000000000000000000000005f82015250565b5f611c0f600e8361182f565b9150611c1a82611bdb565b602082019050919050565b5f6020820190508181035f830152611c3c81611c03565b9050919050565b7f4e6f74206f70656e0000000000000000000000000000000000000000000000005f82015250565b5f611c7760088361182f565b9150611c8282611c43565b602082019050919050565b5f6020820190508181035f830152611ca481611c6b565b9050919050565b7f4f6e6c7920746865206167656e742063616e2063616e63656c000000000000005f82015250565b5f611cdf60198361182f565b9150611cea82611cab565b602082019050919050565b5f6020820190508181035f830152611d0c81611cd3565b9050919050565b7f5469746c652072657175697265640000000000000000000000000000000000005f82015250565b5f611d47600e8361182f565b9150611d5282611d13565b602082019050919050565b5f6020820190508181035f830152611d7481611d3b565b9050919050565b7f4d6178206d757374206265203e3d206d696e00000000000000000000000000005f82015250565b5f611daf60128361182f565b9150611dba82611d7b565b602082019050919050565b5f6020820190508181035f830152611ddc81611da3565b9050919050565b7f4e487b71000000000000000000000000000000000000000000000000000000005f52601160045260245ffd5b5f611e1a8261148e565b91507fffffffffffffffffffffffffffffffffffffffffffffffffffffffffffffffff8203611e4c57611e4b611de3565b5b600182019050919050565b5f819050815f5260205f209050919050565b5f6020601f8301049050919050565b5f82821b905092915050565b5f60088302611eb37fffffffffffffffffffffffffffffffffffffffffffffffffffffffffffffffff82611e78565b611ebd8683611e78565b95508019841693508086168417925050509392505050565b5f819050919050565b5f611ef8611ef3611eee8461148e565b611ed5565b61148e565b9050919050565b5f819050919050565b611f1183611ede565b611f25611f1d82611eff565b848454611e84565b825550505050565b5f5f905090565b611f3c611f2d565b611f47818484611f08565b505050565b5b81811015611f6a57611f5f5f82611f34565b600181019050611f4d565b5050565b601f821115611faf57611f8081611e57565b611f8984611e69565b81016020851015611f98578190505b611fac611fa485611e69565b830182611f4c565b50505b505050565b5f82821c905092915050565b5f611fcf5f1984600802611fb4565b1980831691505092915050565b5f611fe78383611fc0565b9150826002028217905092915050565b61200082611558565b67ffffffffffffffff81111561201957612018611b24565b5b6120238254611bab565b61202e828285611f6e565b5f60209050601f83116001811461205f575f841561204d578287015190505b6120578582611fdc565b8655506120be565b601f19841661206d86611e57565b5f5b828110156120945784890151825560018201915060208501945060208101905061206f565b868310156120b157848901516120ad601f891682611fc0565b8355505b6001600288020188555050505b505050505050565b828183375f83830152505050565b5f6120df838561182f565b93506120ec8385846120c6565b6120f583611580565b840190509392505050565b5f60a0820190506121135f83018a611820565b818103602083015261212681888a6120d4565b9050818103604083015261213b8186886120d4565b905061214a6060830185611802565b6121576080830184611802565b98975050505050505050565b5f61216d8261148e565b91506121788361148e565b92508282039050818111156121905761218f611de3565b5b92915050565b7f4e487b71000000000000000000000000000000000000000000000000000000005f52603160045260245ffdfea26469706673582212209a152e93c1448b46d1c50d09b10f5cdb03ee677d1250dde19ad268c8e4ee479864736f6c634300081c0033","linkReferences":{}},"methodIdentifiers":{"cancelIntent(uint256)":"a0a31aac","getActiveCount()":"63338b17","getActiveIntents()":"276fdc33","getIntentsByType(uint8)":"eadc7288","intents(uint256)":"46a1a095","markFulfilled(uint256,uint256)":"83e48c86","nextIntentId()":"9b7b7b1e","postIntent(uint8,string,string,string,uint256,uint256)":"ac38e18d"},"id":0}