{
  "_format": "hh-sol-artifact-1",
  "contractName": "MockEndpoint",
  "sourceName": "contracts/mocks/MockEndpoint.sol",
  "abi": [
    {
      "inputs": [
        {
          "internalType": "address",
          "name": "",
          "type": "address"
        }
      ],
      "name": "setDelegate",
      "outputs": [],
      "stateMutability": "nonpayable",
      "type": "function"
    },
    {
      "inputs": [
        {
          "internalType": "address",
          "name": "_receiver",
          "type": "address"
        },
        {
          "components": [
            {
              "internalType": "uint32",
              "name": "srcEid",
              "type": "uint32"
            },
            {
              "internalType": "bytes32",
              "name": "sender",
              "type": "bytes32"
            },
            {
              "internalType": "uint64",
              "name": "nonce",
              "type": "uint64"
            }
          ],
          "internalType": "struct Origin",
          "name": "_origin",
          "type": "tuple"
        },
        {
          "internalType": "bytes32",
          "name": "_guid",
          "type": "bytes32"
        },
        {
          "internalType": "bytes",
          "name": "_message",
          "type": "bytes"
        },
        {
          "internalType": "address",
          "name": "_executor",
          "type": "address"
        },
        {
          "internalType": "bytes",
          "name": "_extraData",
          "type": "bytes"
        }
      ],
      "name": "simulateReceive",
      "outputs": [],
      "stateMutability": "payable",
      "type": "function"
    }
  ],
  "bytecode": "0x608060405234801561001057600080fd5b50610306806100206000396000f3fe6080604052600436106100295760003560e01c8063ca5eb5e11461002e578063efde9ae01461004e575b600080fd5b34801561003a57600080fd5b5061004c6100493660046100ee565b50565b005b61004c61005c366004610159565b6040516313137d6560e01b81526001600160a01b038916906313137d65903490610096908b908b908b908b908b908b908b9060040161023d565b6000604051808303818588803b1580156100af57600080fd5b505af11580156100c3573d6000803e3d6000fd5b50505050505050505050505050565b80356001600160a01b03811681146100e957600080fd5b919050565b60006020828403121561010057600080fd5b610109826100d2565b9392505050565b60008083601f84011261012257600080fd5b50813567ffffffffffffffff81111561013a57600080fd5b60208301915083602082850101111561015257600080fd5b9250929050565b600080600080600080600080888a0361010081121561017757600080fd5b6101808a6100d2565b98506060601f198201121561019457600080fd5b506020890196506080890135955060a089013567ffffffffffffffff808211156101bd57600080fd5b6101c98c838d01610110565b90975095508591506101dd60c08c016100d2565b945060e08b01359150808211156101f357600080fd5b506102008b828c01610110565b999c989b5096995094979396929594505050565b81835281816020850137506000828201602090810191909152601f909101601f19169091010190565b6000883563ffffffff811680821461025457600080fd5b83525060208981013590830152604089013567ffffffffffffffff811680821461027d57600080fd5b806040850152505087606083015260e060808301526102a060e083018789610214565b6001600160a01b03861660a084015282810360c08401526102c2818587610214565b9a995050505050505050505056fea264697066735822122024930676049b179921f513840785e43f4959a8a24383758ae9dc226c79e53d0064736f6c63430008140033",
  "linkReferences": {},
  "deployedLinkReferences": {}
}